:020000040000FA
:10000000D0090020150100002F010000310100007F
:1000100000000000000000000000000000000000E0
:10002000000000000000000000000000330100009C
:100030000000000000000000350100003701000052
:1000400015030000390100003504000039010000EB
:100050003901000000000000C1010000390100006A
:1000600039010000390100003901000039010000A8
:100070003901000039010000390100003901000098
:10008000390100006D030000390100003901000052
:100090008D03000039010000390100003901000022
:1000A00039010000390100000000000000000000DC
:1000B0000000000000000000000000000000000040
:1000C0000348854600F06AF8004800474D0A0000E2
:1000D000D0090020401E00BF00BF00BF00BF00BF0E
:1000E00000BF00BF00BF00BF00BF00BF00BFF1D115
:1000F00070470000401E00BF00BF00BF00BF00BF30
:1001000000BF00BF00BF00BF00BF00BF00BFF1D1F4
:10011000704700000321094802680A43026008484A
:1001200002680A4302600748804707480047FEE725
:10013000FEE7FEE7FEE7FEE7FEE7000024050040DD
:100140005405004095030000C100000030B50B4687
:10015000014600202022012409E00D46D5409D42A1
:1001600005D31D469540491B254695404019154627
:10017000521E002DF1DC30BD03460B439B0703D01C
:1001800009E008C9121F08C0042AFAD203E00B785C
:100190000370401C491C521EF9D27047064C0125C1
:1001A000064E05E0E36807CC2B430C3C984710341F
:1001B000B442F7D3FFF788FFA8130000C81300006C
:1001C000F0B50025FF248BB0013401262F460195A0
:1001D000204600F089FE002808D047484068304299
:1001E00004D046480021201835430160241D7600C4
:1001F0007F1CA4B2042FEBD3FF207D3000F074FEEF
:10020000002807D03E4800210160400705433D48D3
:10021000006901903C4C280712D0012700262F428C
:100220000AD03A48B200111808690969C004C00E22
:100230008903A258890F90477F00761C042EEED3C5
:10024000002D57DA00200590401E4DE0A1194031E5
:1002500008788506AD0E42B2521C39D00121A94062
:10026000089A0091114233D080090390284600F08B
:100270005DFA800020580490002802D103980328DA
:1002800026D103980099032802D1059808430590C8
:100290001F4AA80080180068019A8003800F11424D
:1002A00002D0022802D013E0032811D103990329B8
:1002B00007D102281CD00221284600F0F9FD7F1C3E
:1002C000FFB20498002803D0049A28460399904767
:1002D000761C042EBAD3002F0CD00A48006901996D
:1002E000884207D00190059800273E460890ADE768
:1002F0000321E1E70BB0F0BD006300400060004067
:100300007C61004000050050700100200065004045
:1003100000070050F8B5FF20013000F01DFC00245C
:1003200001250F4E0F4F002808D00F480460012010
:10033000B0607D720021381D00F000FAFF2005300A
:1003400000F00AFC00280AD00748001D04600220C3
:10035000B060BD7203480121103000F0EFF9F8BD24
:1003600000030040B80100200001004010B506491C
:100370000020086048608860C86003494039086010
:10038000486000F08DFE10BD4011014010B500F036
:100390001DFE10BD10B500F06DFA002805D01F49F4
:1003A0001D484860C8131E4988611E48018CC9B2A7
:1003B00001290BD1828C120708D1028D1206120F6F
:1003C000042A03D1828D1206120F0AD0012921D1ED
:1003D000818C09071ED1018D0906090F0A2904D055
:1003E00007E0114A01219160F5E7828D1206120F94
:1003F00005D00D290ED1808D0006000F0AD10B48C3
:100400000168012904D00A49016001680129FCD171
:10041000C021416110BD0000DFFF07C000050040A2
:10042000006C0040C00F00F00006004000EC0640E9
:100430007593000010B500F0FBFE10BD0FB410B5B1
:1004400003A9044B044A029800F018F810BC08BC39
:1004500004B01847670800000C00002002E008C83C
:10046000121F08C1002AFAD170477047002001E02E
:1004700001C1121F002AFBD170470000FFB58DB0EB
:100480000446002506E025280AD0109A0F999047C7
:10049000641C6D1C20780028F5D1284611B0F0BDF1
:1004A00000270121484A009700E00743641C237895
:1004B0000846203B98401042F7D120782E2817D1CB
:1004C000042007436078641C2A280CD10E98641C11
:1004D00002C800910E900BE000990A225143303976
:1004E0004018641C00902078014630390929F3D95E
:1004F00020780028D1D0642808D0692806D0752833
:100500001ED0109A0F9990476D1C5BE00A200E993F
:10051000019001C90E91002802DA40422D2102E02B
:10052000390504D52B216A461172012103E0F90730
:1005300004D02021F7E70BAE0B910DE00021FAE784
:100540000A200E99019001C90E91F7E70199FFF772
:10055000FDFD3031761E31700028F7D103A8801BD5
:1005600020300190780701D5009801E0012000902B
:100570000199884201DD401A00E000200027009028
:1005800006E002A8109AC05D0F9990476D1C7F1C71
:100590000B988742F5DB04E0109A30200F999047C2
:1005A0006D1C0099481E00900029F5DC05E03078AC
:1005B000109A761C0F9990476D1C0199481E019066
:1005C0000029F4DC641C65E709280100BFF34F8FA4
:1005D00004490348C860BFF34F8F00BFFDE7000028
:1005E0000400FA0500ED00E00EB500210290009134
:1005F0006A4601910148FFF7E9FF0EBD0140000086
:1006000010B58268C368934203D000F019F9002046
:1006100010BD052010BD002906D0002A02D0531EAF
:10062000134203D0092070470E2070470160838079
:1006300000218160C1600846704710B58268C368B8
:100640009A1A83889A4203D800F004F9002010BD5A
:10065000042010BD70B50446224888B01E460D0027
:1006600042601CD0A888296882B21F48FFF7D3FFD8
:10067000002815D1A889A96882B21B481030FFF75D
:10068000CAFF00280CD1202218496846FFF774FDE4
:10069000A06806902079002804D0012103E00720FB
:1006A00008B070BD002168460175067760790028A2
:1006B00000D00E2069464875E0780290A07803903B
:1006C00020780190607800900949684600F08AFA25
:1006D0000028E5D100F010FB02480121401C00F089
:1006E000E5FADDE704000020340100206813000073
:1006F0008111000010B501460A48FFF79EFF040073
:100700000ED100F09FFB00280AD107490548FFF7EA
:1007100077FF002804D10121034800F047FB04467D
:10072000204610BD440100200400002002490918A1
:1007300020200856704700007001002070B50D465B
:1007400004462068002805D00168216041682846D9
:100750008847F6E770BD0000F8B52348C168002956
:100760003ED00E6821494C680769C078E11B0D0234
:100770002D0AED1C002814D101201D4A00045060F0
:100780001B4A403A50601B49400008601A49086003
:100790001A49012008602F20FFF7ACFC1249012004
:1007A000C870B54200D23546E81900020F4B000A66
:1007B000403318600D4A5168001B091B0902090AE1
:1007C0000002000AC91C814209D9506818602F2014
:1007D000FFF790FC01200749400480390860F8BD0C
:1007E00000F09AFBF8BD0000100000200015014049
:1007F0004013014080E200E000E100E00010014011
:1008000010B50E4900234A788C78A24212D0521CAF
:10081000D2B24A70022A00D14B704A78074B92003C
:1008200018339A580260086910180002000A08611B
:10083000012010BD0360002010BD0000100000204A
:10084000826883881A4003689A5C0A708168491C30
:1008500081607047C26883881A4003689954C168F0
:10086000491CC160704710B50446C0B2FFF742FF93
:10087000204610BD1048018CC9B2012917D1818CC6
:10088000090714D1018D09060A0F03D1828D1206C2
:10089000120F0ED0090F012903D1828D1206120FFB
:1008A00007D0032903D1808D0006000F01D000205E
:1008B0007047012070470000C00F00F0F8B52C49C8
:1008C000C8680A690C780F79896886469446009151
:1008D0003EE00099E20055182A7836E01823534389
:1008E0006968521CC918AB78D2B2934200D1002279
:1008F0000B78022B02D0032B27D123E04E6803464E
:10090000014603E0B14204D00B46C96900291CD05E
:10091000F8E7002919D08B4208D1C069002805D119
:10092000144F0126BE600026B44601270E68C9692F
:10093000D961002909D00B689B190B6005E001748F
:10094000C06900E000210028F9D169789142C5D141
:100950002146641EE4B20029BBD1054962460A6102
:10096000C8600F71704501D00120F8BD0020F8BDAE
:100970001000002000100140F8B504463148002660
:10098000C168009107784EE02E48F90080680D1884
:1009900043E0002C02D02046E4691FE028781821AB
:1009A00041436A68401CC0B251182870AA7890422E
:1009B00000D12E700A784868012A30D1027C002AC2
:1009C0002DD18A684260CA6882600A69C26049693A
:1009D00081611C490979002900D0466019494368A2
:1009E0000A699C46991A0902174B090A994202D2D0
:1009F0008268891807E06146511A09028268090A6B
:100A00008A4202D9511A016000E006604660012165
:100A100086600174C66100F023FB002CB9D12878F0
:100A200069788842BAD138467F1EFFB20028ABD120
:100A30000448C1680098814201D00120F8BD00201F
:100A4000F8BD000010000020FFFF7F00F0B5314A24
:100A500087B007CA04AB07C32F480090012001905C
:100A60002E480290FF200130039003232C4A694650
:100A700004A8FFF7EFFD002801D0FFF7B5FD172010
:100A800000F004FA0125274CED05A5601026122779
:100A9000304600F0FBF9761CBE42F9D91D4A002011
:100AA000121F115CE160401C0328FADB1E4F012677
:100AB00031461EA0FFF7C2FC0121102000F008FA09
:100AC0000121112000F004FA0121122000F000FAA7
:100AD000384600F049F80021102000F0F9F9002113
:100AE000112000F0F5F90021122000F0F1F938464C
:100AF00000F03AF8761CBE42DADD60682946814390
:100B0000A1602840E0600BA0FFF798FC002007B030
:100B1000F0BD00005C130000000000203400002045
:100B20006D110000000500508813000025640D0AB7
:100B300000000000456E64206F66207573622061BE
:100B40006461707465722063686172676572207495
:100B500065737421000000000121890740180068B6
:100B6000002800D00120704731B57D24E40004E066
:100B7000401E00902046FFF7ADFA00980028F7D1FC
:100B800038BD00008207D30EFF229A408907090E64
:100B900010B5994000280BDA03071B0F083B9C088F
:100BA0000C4BA400E318DC6994430C43DC6107E0C0
:100BB0008408094BA400E418236893430B43236083
:100BC000C106C90E01208840044908600449086034
:100BD00010BD000000ED00E000E400E080E200E075
:100BE00000E100E0F3B52A4C0746E07E81B0002822
:100BF00001D00820FEBD002F00D1264F01263878F5
:100C00003146814024488160386800F047F900216E
:100C1000786800F031F9214DB8696862787D397DD6
:100C20000843E86603CFE8606961387B083F012824
:100C30000FD10021B86800F01FF9387B31468140A0
:100C400015488160F86800F029F9F968B868A9606A
:100C50002861029860603969216000280ED0FF2366
:100C60000F481D33397F0022C250FF234533C25045
:100C70000D4A0C4850600220FFF784FF04202860D2
:100C80000020E0752076A075E676A076FEBD000017
:100C9000540100208813000000050050002500408A
:100CA000002000408000020000230040F8B5104BF7
:100CB00081245E680022A4000E4D002E00D0AC609E
:100CC000DF7D002F0BD01A7E002A04D0002E00D02A
:100CD0006C601120F8BD18610122197604E0D97505
:100CE0000024D8605C761C7600F012F8F8BD000095
:100CF000540100200023004010B5044CA07E0028C1
:100D000003D100F055F90120A07610BD5401002058
:100D1000F8B5234DA87E104301D100F049F9686869
:100D2000204C002805D081201F4980004860002009
:100D3000F8BDFF20453000212150FF2125312046FC
:100D400000F0DCF80546FF210931204600F0D6F816
:100D50000746FF214531204600F0D0F806463946C7
:100D600031432943E9D02846304306D100F0F6F854
:100D70000B48C17D407E8142DFD800210848002D0C
:100D8000C17501D00320F8BD002E01D00F20F8BDA1
:100D9000817E0120002901D02060C8E76060C6E79D
:100DA00054010020002000400023004010B50346FD
:100DB00000F048F8002801D0112010BD034A00209F
:100DC00091759360908200F003F810BD54010020EB
:100DD000F8B50026194FFF251D357E510120B8605A
:100DE00000F09EF9164C6168002910D022E0FF2720
:100DF00001372946114800F081F8002802D1A08A65
:100E0000B842F6D1A08AB84201D000F089F9A08A90
:100E1000A17D8842EBD3A18AC81FF9380CD0074FB7
:100E20002946384600F06AF80028F9D00120F86019
:100E30000020A0753046F8BD0F26F9E700200040DD
:100E4000540100200248807D002800D00120704716
:100E50005401002030B552000A439900039C0A4314
:100E60002102049D0A4329040A43024980004018D4
:100E7000026030BD000700501CB500220B460092F6
:100E800011460192FFF7E6FF1CBD0000024A032154
:100E90008000801801607047000700501CB50021D9
:100EA00000910B46012201911146FFF7D3FF1CBDB3
:100EB000820006481018026803231B049A4302604C
:100EC000026809040A4302607047000000070050EE
:100ED000012282400348002901D082607047C2602D
:100EE00070470000000500500349401800680128C1
:100EF00000D00020704700000060004040580028EB
:100F000000D0012070470322120280184068084078
:100F100000D001207047000070B501240B49600427
:100F200008600B4940108860094940398860094DC4
:100F30006C602F20FFF7DEF8AC60074D00242F20F7
:100F40002C61FFF7D7F8EC7070BD000080E100E085
:100F500040130140001001401000002030B50A4845
:100F6000FF21C57D0022094C0931094B002D62503B
:100F700007D09969437EC268D154417E491C4176AD
:100F800030BD986930BD00005401002000200040B1
:100F9000002500401FB501236A46137010720348F4
:100FA000019106C8684690471FBD0000540100200B
:100FB000FF220548253200218150FF22093281504D
:100FC000012101607047000000200040FEB51F4C69
:100FD00000252769E06802906846FFF711FC019040
:100FE000FFF76CFC06460198002822D000230098E9
:100FF000E16817E00E680A46864202D9301A086096
:1010000012E0801BF31800261660D668D169B4463A
:10101000002E07D0FE183602360A566066469660E5
:10102000D56115460029E5D12846E160FFF7A4FC0B
:1010300006E02846FFF7A0FC002801D1002E02D0D0
:101040000298FFF789FB00202071FEBD10000020F0
:1010500001200249000508607047000000E200E03E
:1010600010B50E4BD968002906D002680C68A24260
:1010700004D8A21A0A60C161D86010BD0B4604E012
:101080000B46C969121B002904D00C689442F7D39F
:10109000A41A0C600260C161D86110BD100000206C
:1010A000F8B51D4DEC68002C34D01C480027406872
:1010B0002969401A0602360A2068B04218D8361A42
:1010C000C7192246107CE46900280FD00020107454
:1010D0006B69002B07D0916950699847002805D0AB
:1010E000FFF782FA02E0516990698847002CE3D14A
:1010F0006978A878814206D1401CC0B2A870022845
:1011000001D10020A87004490006800D18310F504D
:10111000FFF79EFFF8BD0000100000200015014001
:10112000FF2107481D31002242500648828A81680B
:10113000895C828A521C82820348C1617047000028
:101140000020004054010020002500401FB5002170
:101150006A4611701072044882680192817506C84F
:10116000684690471FBD00005401002010B501786B
:10117000022901D0012902D14068FFF735FA10BDDC
:101180007CB50178284D01290AD002292FD00029E9
:101190002CD129462548FFF733FA002833D036E012
:1011A0004068017821481038FFF747FA1F4C103C7F
:1011B000002805D001216A4611700190684608E0B8
:1011C000A068E168081A012805D100206946087066
:1011D000684669688847A068E168081AA18888425B
:1011E00004D811480121401CFFF760FD7CBD02219D
:1011F0006A461170C06801900B480121401CFFF73E
:1012000055FD68460CE001210748FFF7CFFD074870
:101210008168C0688842E9D1032069460870684641
:10122000696888477CBD000004000020440100205C
:10123000F0B5454D012185B049022846FFF763FE10
:1012400001270026414C002824D0FF2125312846C3
:10125000FFF754FE00281DD0FF2025302E5081209E
:101260003B4980008860A07E002800D16F60022189
:10127000684601703749086808600390E17D684658
:101280000172E0680190E675267606CC6846083C57
:1012900090472BE004212846FFF735FE002825D093
:1012A000FF2109312846FFF729FE00281ED0FFF74D
:1012B00055FEE07D617E884218D1207E002808D04E
:1012C000627EE168E0752069E06026766676104609
:1012D0000AE0A07E002800D16F6081201C498000B8
:1012E0008860E675607EE168FFF754FEFF211D31DE
:1012F0002846FFF703FE00280DD0A18AA07D814279
:1013000002D2FFF70DFF06E0FF211D316E500028CD
:1013100001D0FFF71BFFFF2145312846FFF7EEFD07
:1013200000280ED0FF2045302E50A07E002800D08F
:101330002F60E07D002804D0E675607EE168FFF74D
:1013400029FE05B0F0BD000000200040540100203F
:101350000023004080240040101112000B09080AED
:101360000100000000E0D701090000000B000000B0
:101370000A0000000800000000000000000000005B
:1013800000E0D70103000000090000000B0000008E
:101390000A0000000800000000000000000000003B
:1013A00000E0D70103000000C81300000000002087
:1013B000340000005C040000FC1300003400002036
:1013C0009C0900006C040000000000000000000008
:1013D000000000000000000000000000000000000D
:1013E00000000000000000000000000000000000FD
:0C13F00000000000000000000024F400D9
:04000005000000C136
:00000001FF
